:08000000803102288731FC2F3A
:100DF000400198101B10991608007908F100780836
:100E0000F00008007908F5007808F4000800790877
:100E1000F3007808F20008007908F7007808F60077
:100E2000080041010F1D152F162F112F78084C01B6
:100E30008D00080044018E018F0191010430930060
:100E4000900192019401080041010C100B14003034
:100E5000F8000030F90087310C278731080087310E
:100E60001A2787318731AF27873187313C27873170
:100E7000873124278731080048304C019200903098
:100E800090002630910021308E008F010030F80054
:100E90000030F9008731022787310030F800003038
:100EA000F9008731072787310030F8000030F9005A
:100EB0008631FD268731FB0108004E30F800EB300B
:100EC000890B602FF80B602F000040019814D03080
:100ED000F800CA30890B6A2FF80B6A2F40011B14E7
:100EE0000930F900D430F800B630890B752FF80BB3
:100EF000752FF90B752F40019912D030F800CA30C8
:100F0000890B802FF80B802F080087312F2787311E
:100F10008631F826873187315D27873140010D1CE6
:100F2000922F932F8E2F0D18962F972F932F3430AB
:100F3000FA00F230890B9A2FFA0B9A2F3130FA000F
:100F40007A08F8008731112787313430FA00F230FF
:100F5000890BA82FFA0BA82F8E2F80310228400171
:100F6000980199019A019B019C01FC309200DF30AD
:100F70009300BF309400FC3095000F309600F430A1
:100F80007D018C00FE3096007F30A000FF30AA006B
:100F90000730B4008D019701A101AB01B5018E01AD
:100FA0009801A201AC01B601FF308F00FF3099001B
:100FB000FF30A300FF30AD000730B700FF309000D6
:100FC000FF309A00FF30A400FF30AE000F30B800B1
:100FD00017307C01C1000E307B01A2007D01910120
:100FE000920193019B019C019D01A501A601A7010E
:100FF000B901BA01BB010800FB0140018731852F0F
:101000003C340734003400341134073400340034E5
:1010100000340034FD340634023407340734073416
:101020000034003400340034003400340034003420
:041030000034003454
:020000040001F9
:08000000FF3FFF3FFF3FFF3F00
:0A000E00EC3FE73FFF3FFF3FFF3FDD
:00000001FF
