:08000000803102288731FC2F3A
:100DF400400198101B10991608007908F100780832
:100E0400F00008007908F5007808F4000800790873
:100E1400F3007808F20008007908F7007808F60073
:100E2400080041010F1D172F182F132F78084C01AC
:100E34008D00080044018E018F019101043093005C
:100E4400900192019401080041010C100B14003030
:100E5400F8000030F90087310E2787310800873108
:100E64001C2787318731AF27873187313E27873168
:100E7400873126278731080048304C019200903092
:100E840090002630910021308E008F010030F80050
:100E94000030F9008731042787310030F800003032
:100EA400F9008731092787310030F8000030F90054
:100EB4008631FF268731FB0108004E30F800EB3005
:100EC400890B622FF80B622F000040019814D03078
:100ED400F800CA30890B6C2FF80B6C2F40011B14DF
:100EE4000930F900D430F800B630890B772FF80BAD
:100EF400772FF90B772F40019912D030F800CA30C0
:100F0400890B822FF80B822F080087313127873114
:100F14008631FA26873187315F27873140010D1CDE
:100F2400942F952F902F0D18982F992F952F34309B
:100F3400FA00F230890B9C2FFA0B9C2F3130F80009
:100F44008731132787313430FA00F230890BA82F08
:100F5400FA0BA82F902F80310228400198019901A3
:100F64009A019B019C01FC309200DF309300BF305A
:100F74009400FC3095000F309600F4307D018C0015
:100F8400FE3096007F30A000FF30AA000730B40086
:100F94008D019701A101AB01B5018E019801A20158
:100FA400AC01B601FF308F00FF309900FF30A30081
:100FB400FF30AD000730B700FF309000FF309A00DB
:100FC400FF30A400FF30AE000F30B80017307C01B2
:100FD400C1000E307B01A2007D01910192019301B9
:100FE4009B019C019D01A501A601A701B901BA01BC
:100FF400BB010800FB0140018731872F3E340734D1
:101004000034003413340734003400340034003422
:10101400FF3406340434073409340734003400340C
:10102400003400340034003400340034003400341C
:020000040001F9
:08000000FF3FFF3FFF3FFF3F00
:0A000E00EC3FE73FFF3FFF3FFF3FDD
:00000001FF
