:080000008031022887312E2F08
:100E5C00F3014001312F832787314F2787315427E6
:100E6C00873140010D1C372F0D183A2F3430F2000A
:100E7C00F230890B3F2FF20B3F2F3130F0007C27E3
:100E8C0087313430F200F230890B4A2FF20B4A2FA3
:100E9C00372F400198101B10991608004E30F000A7
:100EAC00EB30890B572FF00B572F00004001981493
:100EBC00D030F000CA30890B612FF00B612F40014C
:100ECC001B140930F100D430F000B630890B6C2FB4
:100EDC00F00B6C2FF10B6C2F40019912D030F000FD
:100EEC00CA30890B772FF00B772F080041010F1DAB
:100EFC007C2F70084C018D0008008A2787319427BD
:100F0C008731DB278731F82F44018E018F01910146
:100F1C000430930090019201940108004001980163
:100F2C0099019A019B019C01FC309200DF309300E7
:100F3C00BF309400FC3095000F309600F4307D01EA
:100F4C008C00FE3096007F30A000FF30AA000730E6
:100F5C00B4008D019701A101AB01B5018E0198017F
:100F6C00A201AC01B601FF308F009900A300AD00C7
:100F7C000730B700FF3090009A00A400AE000F308D
:100F8C00B80017307C01C1000E307B01A2007D013E
:100F9C009101920193019B019C019D01A501A60168
:100FAC00A701B901BA01BB01080048304C019200FD
:100FBC00903090002630910021308E008F0100304F
:100FCC00F001F101F52787310030F001F101F6272E
:100FDC0087310030F001F101F727F3010800080018
:100FEC000800080041010C100B140030F001F10155
:040FFC00FF2F0800BB
:020000040001F9
:08000000FF3FFF3FFF3FFF3F00
:0A000E00EC3FE73FFF3FFF3FFF3FDD
:00000001FF
