:08000000803102288531BE2D7C
:100B7C004330A0002C30A1004530A2003830A30037
:100B8C004530A4004230A5003130A6004230A70009
:100B9C003930A8003030A9003230AA003830AB0010
:100BAC004630AC004130AD000D30AE004630AF00E9
:100BBC000D30B000FD014001E32D7E2785316B2601
:100BCC00853170268531502685319826853115263C
:100BDC0085312930FA009630F9007F30890BF42DDD
:100BEC00F90BF42DFA0BF42D0000042EFC01462712
:100BFC0085310330FC0A7C02031CFD2DCD2685318A
:100C0C00FB003430F900F230890B0A2EF90B0A2E56
:100C1C0031307B060319FC2DD8268531042E20306B
:100C2C0086000030870031308400003085000F30A2
:100C3C00F10016001A00F10B1F2E0F304001C000FE
:100C4C00C1014008410203183C2E4108313EFB27EC
:100C5C008531492685310630F1003030890B342E30
:100C6C00F10B342E00324001C10A272E0930F2005C
:100C7C00EE30F100AF30890B412EF10B412EF20B0F
:100C8C00412E0000080041010F1D492E70084C0137
:100C9C008D000800F2012430F00049268531063021
:100CAC00F1003030890B582EF10B582E00320330E6
:100CBC00F20A7202031C512E9C30F100D730890BC2
:100CCC00652EF10B652E00000800400198101B10DA
:100CDC00991608004E30F000EB30890B732EF00B98
:100CEC00732E000040019814D030F000CA30890BEC
:100CFC007D2EF00B7D2E40011B140930F100D430F9
:100D0C00F000B630890B882EF00B882EF10B882E54
:100D1C0040019912D030F000CA30890B932EF00BA1
:100D2C00932E080040013008F4002F08F300023025
:100D3C00F500F601750876020318B42E7608733E9A
:100D4C00FB278531492685310630F1003030890B7F
:100D5C00AD2EF10BAD2E0032F60AA02ECC30F200E7
:100D6C00BC30F1004E30890BB92EF10BB92EF20BC1
:100D7C00B92E0032F430F2008230F1000530890BCC
:100D8C00C52EF10BC52EF20BC52E0000080041013B
:100D9C008F1DCD2EFD014C01901CD62E101210165D
:100DAC000C080800F501F6010030F101F201F526FE
:100DBC008531F50A0319F60A7608803AF40080307A
:100DCC007402031DEB2E05307502031CDA2E343031
:100DDC00F400F230890BF02EF40BF02E0800F30027
:100DEC007108FE2685317308FE2685317208FE2EA9
:100DFC00F0007F390319052F3C278531072F422737
:100E0C00853170083F3903190E2F3C278531102F7F
:100E1C004227853170081F390319172F3C2785315C
:100E2C00192F4227853170080F390319202F3C27C1
:100E3C008531222F42278531700807390319292F54
:100E4C003C2785312B2F4227853170080339031934
:100E5C00322F3C278531342F42278531701C392F96
:100E6C003C2785313B2F42278531422F40011814F6
:100E7C001814181418100800400118141810080041
:100E8C00612785310B30F8002630F7005E30890B76
:100E9C004D2FF70B4D2FF80B4D2FD82685310B30DE
:100EAC00F8002630F7005E30890B5A2FF70B5A2FBB
:100EBC00F80B5A2F0800F501F601FF30F100F20093
:100ECC00F5268531F50A0319F60A7608803AF400FE
:100EDC0080307402031D742F05307502031C632FC0
:100EEC003430F400F230890B792FF40B792F080091
:100EFC00852785318F278531D6278531F32F4401FE
:100F0C008E018F01910104309300900192019401A4
:100F1C0008004001980199019A019B019C01FC3049
:100F2C009200DF309300BF309400FC3095000F30FE
:100F3C009600F4307D018C00FE3096007F30A000CE
:100F4C00FF30AA000730B4008D019701A101AB015D
:100F5C00B5018E019801A201AC01B601FF308F00E2
:100F6C009900A300AD000730B700FF3090009A0045
:100F7C00A400AE000F30B80017307C01C1000E3059
:100F8C007B01A2007D019101920193019B019C01C7
:100F9C009D01A501A601A701B901BA01BB01080079
:100FAC0048304C0192009030900026309100213056
:100FBC008E008F010030F001F101F02785310030F7
:100FCC00F001F101F12785310030F001F101F22738
:100FDC00FD01080008000800080041010C100B146A
:100FEC000030F001F101FA2F08008600870101089A
:040FFC00F0000800F9
:020000040001F9
:08000000FF3FFF3FFF3FFF3F00
:0A000E00EC3FE73FFF3FFF3FFF3FDD
:00000001FF
