:08000000803102288531C02D7A
:100B80004330A0002C30A1004530A2003830A30033
:100B90004530A4004230A5003130A6004230A70005
:100BA0003930A8003030A9003230AA003830AB000C
:100BB0004630AC004130AD000D30AE004630AF00E5
:100BC0000D30B000FD014001E52D7E2785316D26F9
:100BD000853172268531522685319A268531172630
:100BE00085312930FA009630F9007F30890BF62DD7
:100BF000F90BF62DFA0BF62D0000062EFC01472707
:100C000085310330FC0A7C02031CFF2DCF26853181
:100C1000FB003430F900F230890B0C2EF90B0C2E4E
:100C200031307B060319FE2DDA268531062E203061
:100C300086000030870031308400003085000F309E
:100C4000F10016001A00F10B212E0F304001C000F8
:100C5000C1014008410203183E2E4108313EFB27E6
:100C600085314B2685310630F1003030890B362E28
:100C7000F10B362E00324001C10A292E0930F20054
:100C8000EE30F100AF30890B432EF10B432EF20B07
:100C9000432E0000080041010F1D4B2E70084C012F
:100CA0008D000800F2012430F0004B26853106301B
:100CB000F1003030890B5A2EF10B5A2E00320330DE
:100CC000F20A7202031C532E9C30F100D730890BBC
:100CD000672EF10B672E00000800400198101B10D2
:100CE000991608004E30F000EB30890B752EF00B92
:100CF000752E000040019814D030F000CA30890BE6
:100D00007F2EF00B7F2E40011B140930F100D430F0
:100D1000F000B630890B8A2EF00B8A2EF10B8A2E4A
:100D200040019912D030F000CA30890B952EF00B9B
:100D3000952E080040013008F4002F08F30002301F
:100D4000F500F601750876020318B62E7608733E94
:100D5000FB2785314B2685310630F1003030890B79
:100D6000AF2EF10BAF2E0032F60AA22ECC30F200DD
:100D7000BC30F1004E30890BBB2EF10BBB2EF20BB9
:100D8000BB2E0032F430F2008230F1000530890BC6
:100D9000C72EF10BC72EF20BC72E00000800410131
:100DA0008F1DCF2EFD014C01901CD82E1012101655
:100DB0000C080800F501F6010030F101F201F626F9
:100DC0008531F50A0319F60A7608803AF400803076
:100DD0007402083003197502031CDC2E3430F40051
:100DE000F230890BF12EF40BF12E0800F30071089C
:100DF000FF2685317308FF2685317208FF2EF0002B
:100E00007F390319062F3D278531082F4327853168
:100E100070083F3903190F2F3D278531112F4327C4
:100E2000853170081F390319182F3D2785311A2F76
:100E30004327853170080F390319212F3D2785314C
:100E4000232F432785317008073903192A2F3D279F
:100E500085312C2F43278531700803390319332F2F
:100E60003D278531352F43278531701C3A2F3D278B
:100E700085313C2F43278531432F40011814181426
:100E800018141810080040011814181008006227E0
:100E900085310B30F8002630F7005E30890B4E2F7D
:100EA000F70B4E2FF80B4E2FDA2685310B30F8005A
:100EB0002630F7005E30890B5B2FF70B5B2FF80BAA
:100EC0005B2F0800F501F601FF30F101F201F62673
:100ED0008531F50A0319F60A7608803AF400803065
:100EE0007402083003197502031C642F3430F400B7
:100EF000F230890B792FF40B792F08008527853183
:100F00008F278531D6278531F32F44018E018F013C
:100F10009101043093009001920194010800400176
:100F2000980199019A019B019C01FC309200DF30ED
:100F30009300BF309400FC3095000F309600F430E1
:100F40007D018C00FE3096007F30A000FF30AA00AB
:100F50000730B4008D019701A101AB01B5018E01ED
:100F60009801A201AC01B601FF308F009900A300E7
:100F7000AD000730B700FF3090009A00A400AE002B
:100F80000F30B80017307C01C1000E307B01A20089
:100F90007D019101920193019B019C019D01A5019D
:100FA000A601A701B901BA01BB01080048304C01F4
:100FB0009200903090002630910021308E008F01F9
:100FC0000030F001F101F02785310030F001F1012E
:100FD000F12785310030F001F101F227FD01080011
:100FE00008000800080041010C100B140030F0014B
:100FF000F101FA2F0800860087010108F0000800BF
:020000040001F9
:08000000FF3FFF3FFF3FFF3F00
:0A000E00EC3FE73FFF3FFF3FFF3FDD
:00000001FF
