:1000000080310428FF3FFF3F803106287430840090
:100010008230850020308600003087001130823128
:10002000CE228031CA0140018031C128F000700821
:100030007F3903191C281D2821288231EC228031A8
:1000400024288231F722803170083F39031929288A
:100050002A282E288231EC22803131288231F72261
:10006000803170081F390319362837283B28823120
:10007000EC2280313E288231F722803170080F391E
:1000800003194328442848288231EC2280314B2828
:100090008231F7228031700807390319502851281E
:1000A00055288231EC22803158288231F722803164
:1000B0007008033903195D285E2862288231EC221A
:1000C000803165288231F7228031701C68286928C8
:1000D0006D288231EC22803170288231F722803104
:1000E0008231F722803108004001980199019A017C
:1000F0009B019C01FC309200DF309300BF309400E4
:10010000FC3095000F309600F4307D018C00FE30FD
:1001100096007F30A000FF30AA000730B4008D01A8
:100120009701A101AB01B5018E019801A201AC01BB
:10013000B601FF308F00FF309900FF30A300FF3081
:10014000AD000730B700FF309000FF309A00FF305D
:10015000A400FF30AE000F30B80017307C01C100A2
:100160000E307B01A2007D019101920193019B0160
:100170009C019D01A501A601A701B901BA01BB011E
:1001800008008231A32280318231F2228031813114
:10019000882180318131D72180318131072180311F
:1001A0008131482180312930FB009630FA007F30C0
:1001B000890BD828FA0BD828FB0BD82800008231ED
:1001C00085228031FA007A08FC003430FA00F230DF
:1001D000890BE828FA0BE82831307C06031DF1284A
:1001E000F2280129FD0182313D2280310130FA00DF
:1001F0007A08FD0703307D02031CFF280029F3283D
:10020000DF2882311C228031DF2880310428400120
:100210003008F4002F08F3000230F1007108F500F7
:10022000F60129297608733E860087010108F1004E
:100230007108F0008231C52281310630F100303082
:10024000890B2029F10B202900320130F1007108BF
:10025000F60775087602031C2E292F291229CC30A7
:10026000F200BC30F1004E30890B3429F10B3429F7
:10027000F20B34290032F430F2008230F100053004
:10028000890B4029F10B4029F20B4029000008009E
:100290002030860000308700313084000030850037
:1002A0000F30F10016001A00F10B52290F30F10047
:1002B00071084001C000C10175294108313E860026
:1002C00087010108F1007108F0008231C5228131F7
:1002D0000630F1003030890B6B29F10B6B290032AD
:1002E0000130F10071084001C10740084102031CC0
:1002F0007A297B295D290930F200EE30F100AF3018
:10030000890B8029F10B8029F20B8029000008005D
:100310004E30F000EB30890B8B29F00B8B2900005D
:1003200040019814D030F000CA30890B9529F00BA9
:10033000952940011B140930F100D430F000B6308B
:10034000890BA029F00BA029F10BA02940019912DB
:10035000D030F000CA30890BAB29F00BAB29080074
:10036000F601F701FF30F4007408F100FF30F500EA
:100370007508F200FF308231952281310130F60795
:100380000030F73D7708803AF40080307402031D96
:10039000CB2905307602031CCE29CF29B22934306F
:1003A000F400F230890BD229F40BD2290800F201B3
:1003B0002430F1007108F0008231C522813106300D
:1003C000F1003030890BE229F10BE22900320130D3
:1003D000F1007108F20703307202031CF029F129C1
:1003E000D8299C30F100D730890BF429F10BF4297E
:1003F0000000080048304C019200903090002630F8
:10040000910021308E008F010030F0000030F100AB
:100410008231E02281310030F0000030F100823181
:10042000DA2281310030F0000030F1008231E62222
:1004300081314001CA010800F501F601F101F20124
:1004400000308231952282310130F5070030F63DCF
:100450007608803AF40080307402031D312A05309A
:100460007502031C342A352A1E2A3430F400F23077
:10047000890B382AF40B382A08008131B0218231E7
:100480000B30F9002630F8005E30890B452AF80B56
:10049000452AF90B452A82311C2282310B30F900A2
:1004A0002630F8005E30890B532AF80B532AF90BDB
:1004B000532A0800FA34013485340234C534023436
:1004C0000034003400340034E6340234E0340234C2
:1004D000DA340234003400340034003400340034A0
:1004E000003400340034003443342C344534383480
:1004F000453442343134423439343034323438348F
:10050000463441340D3446340D3441018F1D892A5F
:100510008A2A852A4001CA014C01901C902A912AFE
:10052000932A101210160C080800F300710880318D
:100530001620823173088031162082317208803192
:100540001620823108008231BB2282318031742032
:1005500082318131FA2182318231B0228231080028
:1005600041010C100B140030F0000030F10082311A
:10057000D4228231080044018E018F0191010430A0
:100580009300900192019401080041010F1DC92AB6
:10059000CA2AC52A70084C018D000800FE0012000E
:1005A0001E00FE0BCF2A003471084001C9007008FC
:1005B000C800080071084001C5007008C4000800A8
:1005C00071084001C7007008C600080071084001AA
:1005D000C3007008C2000800400118141814181451
:1005E00018100800400198101B10991608004001CF
:1005F000181418100800FF3FFF3FFF3FFF3FFF3F69
:020000040001F9
:08000000FF3FFF3FFF3FFF3F00
:0A000E00EC3FE73FFF3FFF3FFF3FDD
:00000001FF
