:08000000803102288731F02F46
:100C6A004001181418100800400118141814181418
:100C7A001810080071084001B2007008B10008009D
:100C8A0071084001B6007008B500080071084001FB
:100C9A00B4007008B300080071084001B800700879
:100CAA00B7000800FE0012001E00FE0B582E00348A
:100CBA0044018E018F019101043093009001920149
:100CCA009401080041010C100B140030F0000030B0
:100CDA00F100863151268631080086315D2686313B
:100CEA008731452786318631FD268631863167264A
:100CFA0086310800F300710887319227863173081C
:100D0A008731922786317208873192278631080007
:100D1A0043342C3445343834453442343134423443
:100D2A003934303432343834463441340D3446346C
:100D3A000D348631DC2686310B30F8002630F70078
:100D4A005E30890BA62EF70BA62EF80BA62E86313F
:100D5A00BB2686310B30F8002630F7005E30890B4F
:100D6A00B42EF70BB42EF80BB42E0800F501F601D9
:100D7A00F101F201003086317F2686310130F50714
:100D8A000030F63D7608803AF40080307402031D84
:100D9A00D02E08307502031CD32ED42EBD2E34302B
:100DAA00F400F230890BD72EF40BD72E0800F50188
:100DBA00F601F101F201FF3086317F2686310130DA
:100DCA00F5070030F63D7608803AF4008030740268
:100DDA00031DF12E08307502031CF42EF52EDE2EAB
:100DEA003430F400F230890BF82EF40BF82E080098
:100DFA0048304C019200903090002630910021300A
:100E0A008E008F010030F0000030F1008631452657
:100E1A0086310030F0000030F10086314B268631F1
:100E2A000030F0000030F10086313F268631FC01A7
:100E3A0008008631722687313430F900F230890B86
:100E4A00242FF90B242FFB0186319E26873101308E
:100E5A00F9007908FB0703307B02031C352F362F74
:100E6A00292FCB30FA00EC30F9008430890B3B2F64
:100E7A00F90B3B2FFA0B3B2F0032212F803102282E
:100E8A004001980199019A019B019C01FC30920052
:100E9A00DF309300BF309400FC3095000F3096008D
:100EAA00F4307D018C00FE3096007F30A000FF30C8
:100EBA00AA000730B4008D019701A101AB01B50169
:100ECA008E019801A201AC01B601FF308F00FF30FC
:100EDA009900FF30A300FF30AD000730B700FF30A4
:100EEA009000FF309A00FF30A400FF30AE000F30B0
:100EFA00B80017307C01C1000E307B01A2007D01D1
:100F0A009101920193019B019C019D01A501A601FA
:100F1A00A701B901BA01BB010800F00070087F39C6
:100F2A000319982F992F9D2F863139268731A02FA3
:100F3A0086313526873170083F390319A52FA62F28
:100F4A00AA2F863139268731AD2F8631352687314A
:100F5A0070081F390319B22FB32FB72F86313926DC
:100F6A008731BA2F86313526873170080F39031930
:100F7A00BF2FC02FC42F863139268731C72F86311C
:100F8A0035268731700807390319CC2FCD2FD12F79
:100F9A00863139268731D42F863135268731700834
:100FAA0003390319D92FDA2FDE2F863139268731F3
:100FBA00E12F863135268731701CE42FE52FE92F82
:100FCA00863139268731EC2F8631352687318631AD
:100FDA003526873108008D30840086308500203020
:100FEA008600003087001130863157268731FC0190
:100FFA00400187311E2FFD3406340034003400349A
:10100A00003400340034003400343F3406344534AC
:10101A0006344B34063400340034003400340034CF
:0A102A0000340034003400340034B8
:020000040001F9
:08000000FF3FFF3FFF3FFF3F00
:0A000E00EC3FE73FFF3FFF3FFF3FDD
:00000001FF
